{
  "contractName": "SquareVerifier",
  "abi": [
    {
      "constant": true,
      "inputs": [
        {
          "internalType": "uint256[2]",
          "name": "a",
          "type": "uint256[2]"
        },
        {
          "internalType": "uint256[2][2]",
          "name": "b",
          "type": "uint256[2][2]"
        },
        {
          "internalType": "uint256[2]",
          "name": "c",
          "type": "uint256[2]"
        },
        {
          "internalType": "uint256[2]",
          "name": "input",
          "type": "uint256[2]"
        }
      ],
      "name": "verifyTx",
      "outputs": [
        {
          "internalType": "bool",
          "name": "r",
          "type": "bool"
        }
      ],
      "payable": false,
      "stateMutability": "view",
      "type": "function"
    }
  ],
  "bytecode": "0x608060405234801561001057600080fd5b50611088806100206000396000f3fe608060405234801561001057600080fd5b506004361061002b5760003560e01c8063621e9ec014610030575b600080fd5b61018f600480360361014081101561004757600080fd5b8101908080604001906002806020026040519081016040528092919082600260200280828437600081840152601f19601f82011690508083019250505050505091929192908060800190600280602002604051908101604052809291906000905b828210156100fc578382604002016002806020026040519081016040528092919082600260200280828437600081840152601f19601f820116905080830192505050505050815260200190600101906100a8565b50505050919291929080604001906002806020026040519081016040528092919082600260200280828437600081840152601f19601f820116905080830192505050505050919291929080604001906002806020026040519081016040528092919082600260200280828437600081840152601f19601f82011690508083019250505050505091929192905050506101a9565b604051808215151515815260200191505060405180910390f35b60006101b3610ef7565b6040518060400160405280876000600281106101cb57fe5b60200201518152602001876001600281106101e257fe5b60200201518152508160000181905250604051806040016040528060405180604001604052808860006002811061021557fe5b602002015160006002811061022657fe5b602002015181526020018860006002811061023d57fe5b602002015160016002811061024e57fe5b6020020151815250815260200160405180604001604052808860016002811061027357fe5b602002015160006002811061028457fe5b602002015181526020018860016002811061029b57fe5b60200201516001600281106102ac57fe5b602002015181525081525081602001819052506040518060400160405280856000600281106102d757fe5b60200201518152602001856001600281106102ee57fe5b60200201518152508160400181905250606060026040519080825280602002602001820160405280156103305781602001602082028038833980820191505090505b50905060008090505b60028110156103785784816002811061034e57fe5b602002015182828151811061035f57fe5b6020026020010181815250508080600101915050610339565b50600061038582846103a5565b14156103965760019250505061039d565b6000925050505b949350505050565b6000807f30644e72e131a029b85045b68181585d2833e84879b9709143e1f593f000000190506103d3610f2a565b6103db610517565b90508060800151516001865101146103f257600080fd5b6103fa610f71565b6040518060400160405280600081526020016000815250905060008090505b8651811015610490578387828151811061042f57fe5b60200260200101511061044157600080fd5b6104818261047c8560800151600185018151811061045b57fe5b60200260200101518a858151811061046f57fe5b6020026020010151610963565b6109f5565b91508080600101915050610419565b506104b38183608001516000815181106104a657fe5b60200260200101516109f5565b90506104f9856000015186602001516104cb84610aa6565b85604001516104dd8a60400151610aa6565b87606001516104ef8960000151610aa6565b8960200151610b40565b6105095760019350505050610511565b600093505050505b92915050565b61051f610f2a565b60405180604001604052807f1717bc5032e679ff163b15367e306f52e8413a06524779f3f5bf7dbafb69417081526020017ef0da6d28e0e1bcf8184c4936d2216f121e0bc36a232d52f196e729baf5d84b8152508160000181905250604051806040016040528060405180604001604052807f11035f4b78a796f5320427937815fc6d98d0a656fa975b7c4ce475593899533181526020017f08380e9cb8be54d82c89dc567617010eb7c9959c9ff57216d617e07a464102a1815250815260200160405180604001604052807f293dab0f1ca5bfaa8b59dbcf3a531433d1e197ea9ed85d2dcc81fe4133d94f2081526020017f16e04e344cd7e0c461674ea967550eb47ea9ad2b4ff8ff7aee654ac5d14980ea8152508152508160200181905250604051806040016040528060405180604001604052807f1456d5227fb107190b92f22a495f9808e8b7b26da224458b2eea5a250abbb6f281526020017f258281fc1d8c85e10b2bb65edc50dc1a5ed466cd32df825230e84e55ad4533b3815250815260200160405180604001604052807f18378df4f27c1ed5d9efdb15d02ea0f6c979c8877a6ec77c040d1a70b20e421981526020017e7f535583d876885999b39259a81962c575be5cd3b8f712aac674e54c4672388152508152508160400181905250604051806040016040528060405180604001604052807f22e18602ea974a3d1e927892f575d0e07ccce92a5dfce41cc918c12ff8298aac81526020017f014f409ce2963ff18e51cf6df58fd44676937e043d1f04c4621347157b2d22d7815250815260200160405180604001604052807f25d2b737776da1474afcf787b50a4ab51d7a6e261880531a936f0a79a4685ffa81526020017f01c5b2931e6cc3e5b3455d2b9958f9ce6743c85c7fd2650cda7d1836ad719abb8152508152508160600181905250600360405190808252806020026020018201604052801561080457816020015b6107f1610f8b565b8152602001906001900390816107e95790505b50816080018190525060405180604001604052807f282a5b7a6e9e13652fe793c6983546e9ccb4178abc7e774550586945f2e61f9281526020017f0fe832a7d1cd8690f4c0370b3d937d835214ed63744911e779b339e12b432e93815250816080015160008151811061087357fe5b602002602001018190525060405180604001604052807f102692e9b9b15c1454d14c4301cb14ab9d2a5cea3bd67f6c278ffd2f2925860f81526020017f093bc170f26150f27c3a6d9568d58988df153daed3cc4e3c48338dec1158684e81525081608001516001815181106108e457fe5b602002602001018190525060405180604001604052807f13ecd3e01f615f6036e515a9278d2d1617256bed7787aca4901fd5fb36a9ee1681526020017f1eb644f6e973a5073db42de5d0587a93cbd1bbe8fdd2878232174db8218de707815250816080015160028151811061095557fe5b602002602001018190525090565b61096b610f71565b610973610fa5565b83600001518160006003811061098557fe5b6020020181815250508360200151816001600381106109a057fe5b60200201818152505082816002600381106109b757fe5b602002018181525050600060608360808460076107d05a03fa905080600081146109e0576109e2565bfe5b50806109ed57600080fd5b505092915050565b6109fd610f71565b610a05610fc7565b836000015181600060048110610a1757fe5b602002018181525050836020015181600160048110610a3257fe5b602002018181525050826000015181600260048110610a4d57fe5b602002018181525050826020015181600360048110610a6857fe5b602002018181525050600060608360c08460066107d05a03fa90508060008114610a9157610a93565bfe5b5080610a9e57600080fd5b505092915050565b610aae610f71565b60007f30644e72e131a029b85045b68181585d97816a916871ca8d3c208c16d87cfd47905060008360000151148015610aeb575060008360200151145b15610b0f576040518060400160405280600081526020016000815250915050610b3b565b60405180604001604052808460000151815260200182856020015181610b3157fe5b0683038152509150505b919050565b600060606004604051908082528060200260200182016040528015610b7f57816020015b610b6c610f8b565b815260200190600190039081610b645790505b50905060606004604051908082528060200260200182016040528015610bbf57816020015b610bac610fe9565b815260200190600190039081610ba45790505b5090508a82600081518110610bd057fe5b60200260200101819052508882600181518110610be957fe5b60200260200101819052508682600281518110610c0257fe5b60200260200101819052508482600381518110610c1b57fe5b60200260200101819052508981600081518110610c3457fe5b60200260200101819052508781600181518110610c4d57fe5b60200260200101819052508581600281518110610c6657fe5b60200260200101819052508381600381518110610c7f57fe5b6020026020010181905250610c948282610ca4565b9250505098975050505050505050565b60008151835114610cb457600080fd5b6000835190506000600682029050606081604051908082528060200260200182016040528015610cf35781602001602082028038833980820191505090505b50905060008090505b83811015610e9957868181518110610d1057fe5b602002602001015160000151826000600684020181518110610d2e57fe5b602002602001018181525050868181518110610d4657fe5b602002602001015160200151826001600684020181518110610d6457fe5b602002602001018181525050858181518110610d7c57fe5b602002602001015160000151600160028110610d9457fe5b6020020151826002600684020181518110610dab57fe5b602002602001018181525050858181518110610dc357fe5b602002602001015160000151600060028110610ddb57fe5b6020020151826003600684020181518110610df257fe5b602002602001018181525050858181518110610e0a57fe5b602002602001015160200151600160028110610e2257fe5b6020020151826004600684020181518110610e3957fe5b602002602001018181525050858181518110610e5157fe5b602002602001015160200151600060028110610e6957fe5b6020020151826005600684020181518110610e8057fe5b6020026020010181815250508080600101915050610cfc565b50610ea261100f565b6000602082602086026020860160086107d05a03fa90508060008114610ec757610ec9565bfe5b5080610ed457600080fd5b600082600060018110610ee357fe5b602002015114159550505050505092915050565b6040518060600160405280610f0a610f8b565b8152602001610f17610fe9565b8152602001610f24610f8b565b81525090565b6040518060a00160405280610f3d610f8b565b8152602001610f4a610fe9565b8152602001610f57610fe9565b8152602001610f64610fe9565b8152602001606081525090565b604051806040016040528060008152602001600081525090565b604051806040016040528060008152602001600081525090565b6040518060600160405280600390602082028038833980820191505090505090565b6040518060800160405280600490602082028038833980820191505090505090565b6040518060400160405280610ffc611031565b8152602001611009611031565b81525090565b6040518060200160405280600190602082028038833980820191505090505090565b604051806040016040528060029060208202803883398082019150509050509056fea265627a7a72315820125c4a122a2704ef7ae2d499cd4f2879b2a35d6f05f2d2741ab5f09ba7d26d4e64736f6c63430005110032",
  "source": "pragma solidity >=0.4.21 <0.6.0;\nimport \"openzeppelin-solidity/contracts/utils/Address.sol\";\nimport \"./ERC721Mintable.sol\";\nimport \"./Verifier.sol\";\n\n// TODO define a contract call to the zokrates generated solidity contract <Verifier> or <renamedVerifier>\ncontract SquareVerifier is Verifier {\n\n}\n\n// TODO define another contract named SolnSquareVerifier that inherits from your ERC721Mintable class\ncontract SolnSquareVerifier is CapStoneToken {\n    SquareVerifier public squareContract;\n\n    constructor(address verifierAddress) public CapStoneToken() {\n        squareContract = SquareVerifier(verifierAddress);\n    }\n\n    // TODO define a solutions struct that can hold an index & an address\n    struct Solutions {\n        uint256 tokenId;\n        address to;\n    }\n\n    // TODO define an array of the above struct\n    Solutions[] private solutionsArray;\n\n    // TODO define a mapping to store unique solutions submitted\n    mapping(bytes32 => Solutions) private solutionsMapping;\n\n    // TODO Create an event to emit when a solution is added\n    event SolutionAdded(uint256 tokenId, address to);\n\n    // TODO Create a function to add the solutions to the array and emit the event\n    function addSolution(\n        address _to,\n        uint256 _tokenId,\n        bytes32 _key\n    ) public {\n        Solutions memory _solution = Solutions(_tokenId, _to);\n        solutionsArray.push(_solution);\n        solutionsMapping[_key] = _solution;\n        emit SolutionAdded(_tokenId, _to);\n    }\n\n    // TODO Create a function to mint new NFT only after the solution has been verified\n    //  - make sure the solution is unique (has not been used before)\n    //  - make sure you handle metadata as well as tokenSuplly\n    function mintToken(\n        address _to,\n        uint256 _tokenId,\n        uint256[2] memory a,\n        uint256[2][2] memory b,\n        uint256[2] memory c,\n        uint256[2] memory input\n    ) public {\n        bytes32 key = keccak256(abi.encodePacked(a, b, c, input));\n        require(\n            solutionsMapping[key].to == address(0),\n            \"Solution is already used.\"\n        );\n        require(\n            squareContract.verifyTx(a, b, c, input),\n            \"Solution is not correct\"\n        );\n        addSolution(_to, _tokenId, key);\n        mint(_to, _tokenId);\n    }\n\n    function IsMintable(\n        address _to,\n        uint256 _tokenId,\n        uint256[2] memory a,\n        uint256[2][2] memory b,\n        uint256[2] memory c,\n        uint256[2] memory input\n    ) public {\n        require(\n            squareContract.verifyTx(a, b, c, input),\n            \"Solution is not correct\"\n        );\n        bytes32 key = keccak256(abi.encodePacked(a, b, c, input));\n        require(\n            solutionsMapping[key].to == address(0),\n            \"Solution is already used.\"\n        );\n\n        addSolution(_to, _tokenId, key);\n    }\n}\n",
  "sourcePath": "/Users/mac/Documents/blockchain/udacity/capstone/eth-contracts/contracts/SolnSquareVerifier.sol",
  "compiler": {
    "name": "solc",
    "version": "0.5.17+commit.d19bba13.Emscripten.clang"
  },
  "schemaVersion": "3.4.1",
  "updatedAt": "2021-11-21T21:41:10.456Z",
  "networkType": "ethereum",
  "devdoc": {
    "methods": {}
  },
  "userdoc": {
    "methods": {}
  }
}